:0400000037EF3CF0AA
:10785E000D0E0C6E250E0D6E030EACEC3DF01200EF
:10786E00446A436A426A416A406A3F6A000EF86E91
:10787E00000127EF3EF0056E010E036E0550C009A4
:10788E0098EC3CF0020E036E0550C00998EC3CF0EB
:10789E001200056E010E036E0550B80998EC3CF00F
:1078AE00020E036E0550B80998EC3CF01200818A66
:1078BE00010E036E3F0E98EC3CF0020E036E3F0E6F
:1078CE0098EC3CF0000E42EC3CF01200015003022A
:1078DE00F3CF05F0F4CF06F001500402F350062664
:1078EE0002500302F350062605C001F006C002F056
:1078FE001200026E9568000E936E0204D8B4819049
:10790E00020E0218D8B481928186819400F081888B
:10791E0000F083CF01F0819801BEF9D7818081827A
:10792E001200046E035080EC3CF0000E936E0304C4
:10793E00D8B48190020E0318D8B4819281968194A6
:10794E0000F0818800F004C083FF000E956E00F0F9
:10795E0081988180818212000A0E156E3FC016F04A
:10796E0040C017F0030E94EC3EF00C0E156E41C0A5
:10797E0016F042C017F0030E94EC3EF00E0E156E8C
:10798E0043C016F044C017F0030E94EC3EF0120004
:10799E00056E400E05600CD0010E036E05504009B9
:1079AE0098EC3CF0020E036E400E98EC3CF0120088
:1079BE00010E036E7F0E98EC3CF0020E036E055026
:1079CE00C00F400998EC3CF01200434A442A44BED2
:1079DE000CD0445004E10A0E435CD8A006D0000E31
:1079EE00446E000E436E414A422A42BE0CD04250B3
:1079FE0004E10A0E415CD8A006D0000E426E000EC5
:107A0E00416E3F4A402A40BE1200405004E10A0E29
:107A1E003F5CD8A01200000E406E000E3F6E1200AA
:107A2E00086E400E066004D0000E0A6E010E03D0E2
:107A3E00000E0A6E020E096E09C00BF0085050ECD3
:107A4E003CF00650CFEC3CF00B5080EC3CF0000EBE
:107A5E00936E0B04D8B48190020E0B18D8B4819299
:107A6E008196818400F0818800F007C083FF000EAC
:107A7E00956E00F08198818081821200126E12C084
:107A8E0013F0146A1CD00DC015F0166A09D015C07B
:107A9E0006F0000E076E135017EC3DF0154A162A2D
:107AAE000E500F6E106A15500F5C1050800A116E3A
:107ABE001650800A1158D8B0EAD7134A142A0C501F
:107ACE000F6E106A13500F5C1050800A116E145016
:107ADE00800A1158D8A01200D6D7000E066E02AE3C
:107AEE0006D0016C021ED8B0022A010E066E04AE3C
:107AFE0004D0036C041ED8B0042A03500410D8B46A
:107B0E0018D0010E056E04D0D89003360436052A1F
:107B1E0004AEFAD70350015C04500258D8A004D02A
:107B2E000350015E0450025AD89004320332052EDF
:107B3E00F1D70650D8B404D0016C021ED8B0022A78
:107B4E0001C001F002C002F01200106EE00E0D2412
:107B5E00016E026AFF0E0222000E046E050E036E07
:107B6E006DEC3CF001C011F002C012F00C50050D8E
:107B7E00F3CF0CF0000E146E000E136E090E1124CE
:107B8E00F66E7E0E1220F76E0800F5500E6E0F6A1E
:107B9E000CC006F00EC007F0105017EC3DF00C2A8A
:107BAE00114A122A134A142A14BEE8D7145005E1BA
:107BBE00050E135CD8B01200E1D71200000E066E4F
:107BCE0004AE06D0036C041ED8B0042A010E066E55
:107BDE0002AE06D0016C021ED8B0022A010E061AA1
:107BEE00000E086E000E076E03500410D8B41CD0A1
:107BFE00010E056E04D0D89003360436052A04AE65
:107C0E00FAD7D890073608360350015C0450025854
:107C1E00D8A005D00350015E0450025A0780D890B8
:107C2E0004320332052EEDD70650D8B404D0076CBB
:107C3E00081ED8B0082A07C001F008C002F01200D2
:107C4E00000E0F01386F000E3B6F000E396F000EE5
:107C5E00806E000E836E000E816E9268000E956E21
:107C6E00000E936E5EEC3CF0070E0C6E000E0D6E69
:107C7E007F0E0E6E000E45EC3DF0000E42EC3CF019
:107C8E00B3EC3CF0660E3D6E300E3E6E80A01CD006
:107C9E00740E3D18D8A418D0070E0C6E000E0D6E83
:107CAE007F0E0E6E000E45EC3DF0ECEC3CF0660ED9
:107CBE003D6EB3EC3CF0340E3C6EF20EE82EFED769
:107CCE003C2EFCD7300E3E6E80B00FD0300E3E18DC
:107CDE00D8A40BD0740E3D6E340E3C6EF20EE82E10
:107CEE00FED73C2EFCD7B3EC3CF080A20DD0070E95
:107CFE000C6E000E0D6E7F0E0E6E000E45EC3DF0FE
:107D0E002FEC3CF0310E3E6E80B2C0D7310E3E18D5
:107D1E00D8A4BCD72FEC3CF0B9D7396E17AE15D01E
:107D2E0015C00CF02D0E0D6E3950ACEC3DF0152A31
:107D3E0016C001F017C002F0FF0E046E03686DEC62
:107D4E003CF001C016F002C017F0000E3B6E000EA4
:107D5E003A6E16501710D8A426D0300E196E3A4A25
:107D6E003B2A21D03A50190FD96EDA6A16C001F0AB
:107D7E0017C002F0000E046E0A0E036E74EC3DF096
:107D8E000150300FDF6E3A4A3B2A16C001F017C081
:107D9E0002F0000E046E0A0E036EE5EC3DF001C01B
:107DAE0016F002C017F017BE20D01750DBE11604F4
:107DBE00D8A01BD0D7D73A06D8A03B063A50190FF9
:107DCE00D96EDA6ADF50186E1850166E176A15C023
:107DDE000CF016C00DF03950ACEC3DF0152A7F0EAC
:107DEE00156403D0392A000E156E3BBE12003B50AF
:107DFE00E2E13A04D8A01200DED700000000000035
:107E0E0000005F00000007000700147F147F142499
:107E1E002A7F2A127E2525251A364955225000051D
:107E2E00030000001C2241000041221C00082A1CF5
:107E3E002A0808083E080800503000000808080804
:107E4E0008003030000020100804023E5149453E23
:107E5E0000427F400042615149462141454B311855
:107E6E0014127F1027454545393C4A494930017166
:107E7E000905033649494936064949291E00363651
:107E8E000000005636000000081422411414141489
:107E9E001441221408000201510906324979413E6B
:107EAE007E1111117E7F494949363E414141227F63
:107EBE004141221C7F494949417F090901013E4147
:107ECE004151327F0808087F00417F410020404128
:107EDE003F017F081422417F404040407F02040250
:107EEE007F7F0408107F3E4141413E7F090909060C
:107EFE003E4151215E7F09192946464949493101C2
:107F0E00017F01013F4040403F1F2040201F7F2046
:107F1E0018207F6314081463030478040361514925
:107F2E00454300007F4141020408102041417F007B
:107F3E0000040201020440404040400001020400DF
:107F4E0020545454787F48444438384444442038AC
:107F5E004444487F3854545418087E0901020814CA
:107F6E0054543C7F0804047800447D400020404473
:107F7E003D00007F10284400417F40007C0418041F
:107F8E00787C0804047838444444387C141414086B
:107F9E00081414187C7C0804040848545454200413
:107FAE003F4440203C4040207C1C2040201C3C4054
:107FBE0030403C44281028440C5050503C446454EB
:107FCE004C44000836410000007F00000041360896
:107FDE000008082A1C08081C2A08080800AA00081D
:107FEE0000383838000000000000000000000025B6
:017FFE000082
:020000040030CA
:0E000000FF021900FFA580FF0FC00FE00F40A8
:00000001FF
