:0400000021EF3CF0C0
:1078420000EE2EF0140EEE6AE806FDE1000EF86E70
:107852000001FFEF3DF0056E010E036E0550C009F9
:10786200ABEC3CF0020E036E0550C009ABEC3CF0F1
:107872001200056E010E036E0550B809ABEC3CF028
:10788200020E036E0550B809ABEC3CF01200818A7F
:10789200010E036E3F0EABEC3CF0020E036E3F0E88
:1078A200ABEC3CF0000E2CEC3CF012000F6E0DC065
:1078B20006F0010E076E0F505CEC3DF00DC006F0B5
:1078C200010E076E0F505CEC3DF00E6E0E50120072
:1078D20092680F013869C080C092C094C194C19669
:1078E200C190C192C294C296C298C29AC29CC096DA
:1078F200C088C09AC08EC2801200000E1C6E000E9C
:107902001B6E1BC010F0200E8CEC3DF01B4A1C2A93
:107912001CBEF7D71C5005E1800E1B5CD8B01200CC
:10792200F0D71200026E9568000E936E0204D8B46E
:107932008190020E0218D8B481928186819400F05F
:10794200818800F083CF01F0819801BEF9D7818050
:1079520081821200046E035093EC3CF0000E936E91
:107962000304D8B48190020E0318D8B48192819690
:10797200819400F0818800F004C083FF000E956EB0
:1079820000F08198818081821200000E0F013B6F0E
:10799200000E396F000E836E000E816E000E956E22
:1079A200000E936E48EC3CF0070E0C6E000E0D6E4E
:1079B2007F0E0E6E000E2DEC3DF0000E2CEC3CF016
:1079C2001200056E400E05600CD0010E036E0550CC
:1079D2004009ABEC3CF0020E036E400EABEC3CF007
:1079E2001200010E036E7F0EABEC3CF0020E036E32
:1079F2000550C00F4009ABEC3CF01200086E400E7F
:107A0200066004D0000E0A6E010E03D0000E0A6E4C
:107A1200020E096E09C00BF008503AEC3CF0065019
:107A2200E2EC3CF00B5093EC3CF0000E936E0B0436
:107A3200D8B48190020E0B18D8B4819281968184B9
:107A420000F0818800F007C083FF000E956E00F001
:107A52008198818081821200126E12C013F0146A22
:107A62001CD00DC015F0166A09D015C006F0000E24
:107A7200076E1350FFEC3CF0154A162A0E500F6E9B
:107A8200106A15500F5C1050800A116E1650800A51
:107A92001158D8B0EAD7134A142A0C500F6E106A44
:107AA20013500F5C1050800A116E1450800A115846
:107AB200D8A01200D6D7086E400E066004D0000E81
:107AC2000A6E010E03D0000E0A6E020E096E09C084
:107AD2000CF00750D8B406D008503AEC3CF00650EF
:107AE200E2EC3CF00C5093EC3CF09568000E936E87
:107AF2000C04D8B48190020E0C18D8B481928186FD
:107B0200818400F0818800F083CF0BF0819881801E
:107B120081820B5012001A6E1AC011F0D8901132E5
:107B2200D8901132D89011321150186E196A1AC0B9
:107B320011F0070E1116010E126E000E136E112AAD
:107B420003D0D89012361336112EFBD712C014F080
:107B520013C015F010C00DF0185057EC3CF0116E28
:107B62001150166E176A10C006F014501610076EE8
:107B72001850FFEC3CF01200000E066E04AE06D068
:107B8200036C041ED8B0042A010E066E02AE06D0A3
:107B9200016C021ED8B0022A010E061A000E086EEF
:107BA200000E076E03500410D8B41CD0010E056EEF
:107BB20004D0D89003360436052A04AEFAD7D890FA
:107BC200073608360350015C04500258D8A005D08D
:107BD2000350015E0450025A0780D89004320332E7
:107BE200052EEDD70650D8B404D0076C081ED8B0C5
:107BF200082A07C001F008C002F01200C6EC3CF0EF
:107C020069EC3CF07EEC3CF0000E2D6E000E2C6E0A
:107C1200000E266E000E256E310E2B6E000E2A6EA1
:107C2200000E296E7F0E2C182D10D8A416D0000E2F
:107C32002D6E000E2C6E030E0C6E000E0D6E7F0E5E
:107C42000E6E000E2DEC3DF0070E0C6E000E0D6E4A
:107C52007F0E0E6E050E2DEC3DF0020E1E6E040E12
:107C62001D6EBA0EE82EFED71D2EFCD71E2EFAD799
:107C720000D0C282C2B2FED7C450286E276AC35057
:107C82002726000E282227C001F028C002F0000E8D
:107C9200046E200E036EBDEC3DF001C01FF002C069
:107CA20020F02CC010F01F501F088CEC3DF00A0E83
:107CB20029182A10D8A404D0000E2A6E000E296EAC
:107CC2002950020DF3502E0FD96EDA6A27C0DEFF5B
:107CD20028C0DDFF090E25182610D8A43CD0310E8D
:107CE2002B18D8A438D0325030241D6E3350312096
:107CF2001E6E34501D2635501E2236501D2637501A
:107D02001E2238501D2639501E223A501D263B5045
:107D12001E223C501D263D501E223E501D263F5025
:107D22001E2240501D2641501E222E501D24016E3F
:107D32002F501E20026E000E046E0A0E036EBDEC62
:107D42003DF001C023F002C024F0000E266E000EAA
:107D5200256E300E2B6E300E2B18D8A432D0325036
:107D620030241D6E335031201E6E34501D26355086
:107D72001E2236501D2637501E2238501D263950DD
:107D82001E223A501D263B501E223C501D263D50BD
:107D92001E223E501D263F501E2240501D2641509D
:107DA2001E222E501D24016E2F501E20026E000E28
:107DB200046E0A0E036EBDEC3DF001C023F002C05A
:107DC20024F023C001F024C002F0000E046E200E45
:107DD200036EBDEC3DF001C021F002C022F02DBEC9
:107DE2000CD02D5004E1040E2C5CD8A006D02CC07F
:107DF20010F021503F088CEC3DF0254A262A2C4AEF
:107E02002D2A294A2A2A0ED700FFFFFFFFFF000072
:107E12005F00000007000700FFFFFFFFFF242A7F2B
:107E22002A127E2525251A364955225000050300BF
:107E320000001C2241000041221C0008000000003A
:107E420008083E08080050300000808080808000D2
:107E52003030000020100804023E5149453E0042E5
:107E62007F400042615149462141454B311814126D
:107E72007F1027454545393C4A494930017109057A
:107E8200033649494936064949291E00363600005B
:107E92000056360000000814224114141414144130
:107EA200221408000201510906324979413E7E112D
:107EB20011117E7F494949363E414141227F41416C
:107EC200221C7F494949417F090901013E41415133
:107ED200327F0808087F00417F41002040413F0176
:107EE2007F081422417F404040407F0204027F7F8E
:107EF2000408107F3E4141413E7F090909063E4187
:107F020051215E7F09192946464949493101017FBC
:107F120001013F4040403F1F2040201F7F2018208A
:107F22007F631408146303047804036151494543D1
:107F320000007F4141020408102041417F000004FB
:107F420002010204010101010100010204002054A6
:107F52005454787F48444438384444442038444494
:107F6200487F3854545418087E09010208145454A6
:107F72003C7F0804047800447D40002040443D00DA
:107F8200007F10284400417F40007C041804787C64
:107F92000804047838444444387C1414140808143F
:107FA20014187C7C080404084854545420800000AF
:107FB200000000000000800100000000000000003E
:107FC2000100000000FFFF000000004464544C4424
:107FD20000083641000000FF00000041360800089A
:107FE200082A1C08081C2A08080800AA00080038E9
:0E7FF200383800000000000000000000000011
:020000040030CA
:0E000000FF021900FFA580FF0FC00FE00F40A8
:00000001FF
