:0400000053EF00F0CA
:060008001682CFEF00F0AC
:100018001680D8CF0FF0E8CF10F0E0CF11F0D9CF8D
:1000280012F0DACF13F0F0A011D0F09015BE06D080
:10003800155009E10A0E145CD8B005D0B8EC00F0F0
:1000480022D055EC00F0F0B21ED0FBD7F0A21BD0A6
:10005800F092000E156E000E146E0F0E806E145086
:10006800010FD96EDA6ADF508C6E030E0E6E080E21
:100078000D6E770EE82EFED70D2EFCD70E2EFAD772
:1000880000F0144A152A13C0DAFF12C0D9FF11C0B4
:10009800E0FF10C0E8FF0FC0D8FF16901000A1EFD6
:1000A80000F0000E0C6E000E0B6E0B500C10D8A456
:1000B80006D0000E836E010E806E860E18D00B04DB
:1000C8000C10D8A404D0000E836E020E08D0020EC5
:1000D8000B180C10D8A406D0000E836E040E806E88
:1000E800500E05D0000E836E080E806E790E8C6E51
:1000F8000B4A0C2A0CBED9D70C5005E1040E0B5C38
:10010800D8B01200D2D71200000E0F01386F000EBF
:10011800396F000E3B6F000E926E010E936E000E4B
:10012800956E000E806E000E836ED08ED00EF26E2D
:10013800300EF16E1B0EF06E1200B40EF66E010E4C
:10014800F76E000EF86E00EE01F010EE0AF00900EE
:10015800F5CFEEFFE550E150FAE1156A146A169002
:1001680016920001DFEF00F00F0E806E1450010FA1
:10017800D96EDA6ADF508C6E030E0C6E080E0B6EA9
:10018800770EE82EFED70B2EFCD70C2EFAD700F0F0
:10019800144A152A1200F2A207D0F292F2AC02D049
:1001A800F29C02D0F2ACF28C169211003F065B4F23
:0C01B800666D7D077F6788EC00F0FFD7C4
:00000001FF
