:0400000026EF00F0F7
:100008005282F2B4F2AA1CD0310E516E4050411007
:10001800D8A404D0850ED76EEE0E10D0400441103F
:10002800D8A404D0F30ED76ECB0E08D0020E401819
:100038004110D8A404D0FE0ED76EC70ED66EF29427
:100048005292110099EF03F045AE04D0000E456EB0
:100058003B0E446E47AE04D0000E476E170E466E38
:1000680043BE0CD0435004E13C0E425CD8A006D0FD
:10007800000E436E000E426E444A452A45BE0CD01F
:10008800455004E13C0E445CD8A006D0000E456EF5
:10009800000E446E464A472A47BE0AD0475004E13C
:1000A800180E465CD8A004D0000E476E000E466EAF
:1000B80047BE06D0475016E10A0E465CD8B012D0AB
:1000C800000E156E000E176E000E166E060EE6EC8C
:1000D80001F0010E156E46C016F047C017F0060E67
:1000E800E6EC01F045BE06D0455016E10A0E445C28
:1000F800D8B012D0030E156E000E176E000E166ED5
:10010800060EE6EC01F0040E156E44C016F045C06C
:1001180017F0060EE6EC01F043BE06D0435016E198
:100128000A0E425CD8B012D0060E156E000E176E7D
:10013800000E166E060EE6EC01F0070E156E42C0B4
:1001480016F043C017F0060EE6EC01F043BE0FD0E0
:10015800435004E10A0E425CD8A009D0060E156E81
:1001680042C016F043C017F0060EE6EC01F045BE9B
:100178000FD0455004E10A0E445CD8A009D0030E04
:10018800156E44C016F045C017F0060EE6EC01F0F7
:1001980047BE0FD0475004E10A0E465CD8A009D0EC
:1001A800000E156E46C016F047C017F0060EE6ECB6
:1001B80001F0020E0C6E3A0E0D6E060E98EC02F06F
:1001C800050E0C6E3A0E0D6E060E98EC02F012003B
:1001D80082A02ED0300E4F18D8A42AD03E043F104B
:1001E800D8A409D0000E3F6E000E3E6E000E496E78
:1001F800010E486E19D048044910D8A409D0000E41
:10020800496E000E486E000E3D6E010E3C6E0CD01D
:100218003C043D10D8A408D0000E3D6E000E3C6E84
:10022800000E3F6E010E3E6E310E506E310E4F6E57
:10023800310E5018D8A41ED03E043F10D8A41AD0AE
:1002480082A20AD0300E4E18D8A406D0444A452AB5
:1002580028EC00F0310E4E6E82A437D0300E4D18C7
:10026800D8A433D04406D8A0450628EC00F0310EB7
:100278004D6E2BD0310E5018D8A409D0480449101F
:10028800D8A405D0424A432A28EC00F01ED0310EEB
:100298005018D8A41AD03C043D10D8A416D082A275
:1002A8000AD0300E4E18D8A406D0464A472A28EC61
:1002B80000F0310E4E6E82A408D0300E4D18D8A42E
:1002C80004D04606D8A04706D0D782B002D0300E58
:1002D8004F6E82B202D0300E4E6E82B41200300ED3
:1002E8004D6E120009EC03F048044910D8B447D009
:1002F8004CD082A016D048044910D8A412D0300E91
:100308004F18D8A40ED0000E496E000E486E000E8D
:100318003D6E010E3C6E310E516E310E506E310E37
:100328004F6E82A016D03C043D10D8A412D0300ED7
:100338004F18D8A40ED0000E3D6E000E3C6E000E75
:100348003F6E010E3E6E310E516E310E506E310E03
:100358004F6E82A614D0300E4C18D8A410D0404A44
:10036800412A41BE0AD0415004E1030E405CD8A0A6
:1003780004D0000E416E000E406E310E4C6E300EF1
:100388005118D8B4B6D7300E516EECEC00F082A6F6
:1003980014D0300E4C18D8A410D0404A412A41BE7F
:1003A8000AD0415004E1030E405CD8A004D0000EEE
:1003B800416E000E406E310E4C6E82B695D7300EEF
:1003C8004C6E92D7396E17AE15D015C00CF02D0EA5
:1003D8000D6E395098EC02F0152A16C001F017C0BE
:1003E80002F0FF0E046E036806EC04F001C016F07C
:1003F80002C017F0000E3B6E000E3A6E1650171032
:10040800D8A426D0300E196E3A4A3B2A21D03A5049
:10041800190FD96EDA6A16C001F017C002F0000E83
:10042800046E0A0E036ED1EC02F00150300FDF6E3D
:100438003A4A3B2A16C001F017C002F0000E046EBB
:100448000A0E036E56EC02F001C016F002C017F057
:1004580017BE20D01750DBE11604D8A01BD0D7D781
:100468003A06D8A03B063A50190FD96EDA6ADF501F
:10047800186E1850166E176A15C00CF016C00DF0DD
:10048800395098EC02F0152A7F0E156403D0392AEA
:10049800000E156E3BBE12003B50E2E13A04D8A0B4
:1004A8001200DED7000E066E04AE06D0036C041EE2
:1004B800D8B0042A010E066E02AE06D0016C021EE8
:1004C800D8B0022A010E061A000E086E000E076E3A
:1004D80003500410D8B41CD0010E056E04D0D89077
:1004E80003360436052A04AEFAD7D89007360836FC
:1004F8000350015C04500258D8A005D00350015E97
:100508000450025A0780D89004320332052EEDD7E2
:100518000650D8B404D0076C081ED8B0082A07C003
:1005280001F008C002F01200106EE00E0D24016EFA
:10053800026AFF0E0222000E046E050E036E06EC20
:1005480004F001C011F002C012F00C50050DF3CFF9
:100558000CF0000E146E000E136E0B0E1124F66EC6
:100568007E0E1220F76E0800F5500E6E0F6A0CC052
:1005780006F00EC007F010506BEC03F00C2A114A7D
:10058800122A134A142A14BEE8D7145005E1050E9E
:10059800135CD8B01200E1D71200000E066E02AE4E
:1005A80006D0016C021ED8B0022A010E066E04AEF7
:1005B80004D0036C041ED8B0042A03500410D8B425
:1005C80018D0010E056E04D0D89003360436052ADB
:1005D80004AEFAD70350015C04500258D8A004D0E6
:1005E8000350015E0450025AD89004320332052E9B
:1005F800F1D70650D8B404D0016C021ED8B0022A34
:1006080001C001F002C002F01200D58ED59CD59A27
:10061800D588D596D584D592D580F28EF28CF28A7B
:10062800F184850ED76EEE0ED66E000E0F013A6F6E
:10063800000E3B6F000E396F000E826E000E836E47
:10064800000E816E9468000E956E000E936E19EC84
:1006580004F0070E0C6E000E0D6E7F0E0E6E000E6F
:100668003CEC03F0000E36EC04F028EC00F012002D
:10067800126E12C013F0146A1CD00DC015F0166A61
:1006880009D015C006F0000E076E13506BEC03F08E
:10069800154A162A0E500F6E106A15500F5C10502E
:1006A800800A116E1650800A1158D8B0EAD7134A3A
:1006B800142A0C500F6E106A13500F5C1050800AE9
:1006C800116E1450800A1158D8A01200D6D7086E9F
:1006D800400E066004D0000E0A6E010E03D0000E14
:1006E8000A6E020E096E09C00BF0085028EC04F0DF
:1006F8000650B6EC03F00B50EEEC03F0000E936ED0
:100708000B04D8B48190020E0B18D8B4819281964C
:10071800818400F0818800F007C083FF000E956E89
:1007280000F08198818081821200880EF66E080E92
:10073800F76E000EF86E00EE48F010EE0AF00900B1
:10074800F5CFEEFFE550E150FAE100EE3CF00C0E7B
:10075800EE6AE806FDE152905292000EF86E000132
:1007680076EF01F0056E400E05600CD0010E036EA9
:1007780005504009D3EC03F0020E036E400ED3EC93
:1007880003F01200010E036E7F0ED3EC03F0020E8D
:10079800036E0550C00F4009D3EC03F01200046E3D
:1007A8000350EEEC03F0000E936E0304D8B481906E
:1007B800020E0318D8B481928196819400F0818842
:1007C80000F004C083FF000E956E00F081988180D0
:1007D80081821200026E9568000E936E0204D8B4EE
:1007E8008190020E0218D8B481928186819400F01B
:1007F800818800F083CF01F0819801BEF9D781800C
:100808008182120001500302F3CF05F0F4CF06F005
:1008180001500402F350062602500302F350062644
:1008280005C001F006C002F01200818A010E036EB5
:100838003F0ED3EC03F0020E036E3F0ED3EC03F031
:10084800000E36EC04F01200056E010E036E055022
:10085800B809D3EC03F0020E036E0550B809D3ECC7
:1008680003F01200056E010E036E0550C009D3ECAB
:1008780003F0020E036E0550C009D3EC03F012001A
:0A08880001003030303030303131E3
:107E0A0000000000000000005F00000007000700FB
:107E1A00147F147F14242A7F2A127E2525251A36D8
:107E2A00495522500005030000001C224100004170
:107E3A00221C00082A1C2A0808083E08080050309C
:107E4A000000080808080800303000002010080464
:107E5A00023E5149453E00427F4000426151494637
:107E6A002141454B311814127F1027454545393CAD
:107E7A004A494930017109050336494949360649D3
:107E8A0049291E0036360000005636000000081444
:107E9A002241141414141441221408000201510935
:107EAA0006324979413E7E1111117E7F4949493690
:107EBA003E414141227F4141221C7F494949417F3C
:107ECA00090901013E414151327F0808087F0041FA
:107EDA007F41002040413F017F081422417F4040FA
:107EEA0040407F0204027F7F0408107F3E414141E7
:107EFA003E7F090909063E4151215E7F091929463B
:107F0A00464949493101017F01013F4040403F1F35
:107F1A002040201F7F2018207F6314081463030465
:107F2A00780403615149454300007F414102040836
:107F3A00102041417F0000040201020440404040F9
:107F4A0040000102040020545454787F48444438C5
:107F5A003844444420384444487F38545454180818
:107F6A007E090102081454543C7F08040478004432
:107F7A007D40002040443D00007F10284400417F9E
:107F8A0040007C041804787C08040478384444448B
:107F9A00387C14141408081414187C7C0804040887
:107FAA004854545420043F4440203C4040207C1C08
:107FBA002040201C3C4030403C44281028440C50AF
:107FCA0050503C4464544C44000836410000007F41
:107FDA000000004136080008082A1C08081C2A0864
:107FEA00080800AA0008003838380000000000001D
:067FFA0000000000000081
:020000040030CA
:0E000000FF021900FFA580FF0FC00FE00F40A8
:00000001FF
