:040000006BEF3BF077
:107658000900056E010E036E0550C00996EC3BF05B
:10766800020E036E0550C00996EC3BF01200056E41
:10767800010E036E0550B80996EC3BF0020E036E3E
:107688000550B80996EC3BF01200818A010E036E92
:107698003F0E96EC3BF0020E036E3F0E96EC3BF06D
:1076A800000E2DEC3BF0120001500302F3CF05F061
:1076B800F4CF06F001500402F350062602500302EC
:1076C800F350062605C001F006C002F01200580E5D
:1076D800F66E760EF76E000EF86E0900F5CF29F0FB
:1076E8000900F5CF2AF0286A276A000EF86E000113
:1076F8008FEF3CF0026E9568000E936E0204D8B4CA
:107708008190020E0218D8B481928186819400F08B
:10771800818800F083CF01F0819801BEF9D781807C
:1077280081821200046E03507EEC3BF0000E936ED3
:107738000304D8B48190020E0318D8B481928196BC
:10774800819400F0818800F004C083FF000E956EDC
:1077580000F08198818081821200056E400E0560DC
:107768000CD0010E036E0550400996EC3BF0020E5A
:10777800036E400E96EC3BF01200010E036E7F0E76
:1077880096EC3BF0020E036E0550C00F400996ECD4
:107798003BF01200086E400E066004D0000E0A6E20
:1077A800010E03D0000E0A6E020E096E09C00BF01E
:1077B80008503BEC3BF00650B1EC3BF00B507EEC34
:1077C8003BF0000E936E0B04D8B48190020E0B1898
:1077D800D8B481928196818400F0818800F007C036
:1077E80083FF000E956E00F08198818081821200DF
:1077F800126E12C013F0146A1CD00DC015F0166A70
:1078080009D015C006F0000E076E1350CEEC3BF001
:10781800154A162A0E500F6E106A15500F5C10503C
:10782800800A116E1650800A1158D8B0EAD7134A48
:10783800142A0C500F6E106A13500F5C1050800AF7
:10784800116E1450800A1158D8A01200D6D7146EA1
:107858000DC001F00EC002F0000E046E2C0E036E77
:1078680058EC3BF00DC001F00EC002F0000E046EA3
:107878002C0E036E58EC3BF001C016F002C017F056
:1078880031D00CC015F0000E196E000E186E470EA0
:107898000F6E7E0E106E16500F26175010221850BD
:1078A8000F26195010220FC0F6FF10C0F7FF08006E
:1078B800F550126E136A15C006F012C007F0145086
:1078C800CEEC3BF0152A184A192A19BEE0D71950F0
:1078D80004E10B0E185CD8A0DAD7142A0B0E162672
:1078E800000E17220DC001F00EC002F0000E046E4B
:1078F8002C0E036E58EC3BF02C0E0126000E0222D3
:107908000150165C1750800A0F6E0250800A0F58FB
:10791800D8B01200B6D7000E0F01386F000E3B6FBB
:10792800000E396F000E806E000E836E000E816EA1
:107938009268000E956E000E936E49EC3BF0070EB0
:107948000C6E000E0D6E7F0E0E6E000EFCEC3BF002
:10795800000E2DEC3BF0310E216E310E226E310EF1
:10796800256E300E236E300E246E300E266E300ECD
:10797800206E80A01DD0310E2118D8A419D0300E49
:107988002318D8A415D0000E286E000E276E070EF7
:107998000C6E000E0D6E7F0E0E6E000EFCEC3BF0B2
:1079A800300E216E310E236E300E246E300E266E90
:1079B800310E2318D8A450D0370E0C6E27C00DF006
:1079C80028C00EF0020E2BEC3CF0000E1D6E000ECF
:1079D8002AD0030E1A6E980EE82EFED71A2EFCD760
:1079E8001C4A1D2A80A40AD0310E2518D8A406D016
:1079F800300E256E310E266E310E206E80B408D002
:107A0800310E2618D8A404D0030E1D6EE80E1C6E85
:107A180080A00AD0310E2118D8A406D0300E236ECB
:107A2800030E1D6EE80E1C6E1DBE06D0E80E1C5C13
:107A3800030E1D58D8B002D080A2CBD7274A282AD7
:107A480028BE0AD0285004E10A0E275CD8A004D02A
:107A5800000E286E000E276E80B002D0310E216E07
:107A680080A21DD0310E2218D8A419D0300E2418A7
:107A7800D8A415D0000E2A6E090E296E070E0C6EBA
:107A8800000E0D6E7F0E0E6E000EFCEC3BF0300EFD
:107A9800226E310E246E300E236E300E266E310E9D
:107AA8002418D8B42ABE4BD0370E0C6E29C00DF05E
:107AB8002AC00EF0020E2BEC3CF0000E1F6E000EDA
:107AC8002AD0030E1A6E980EE82EFED71A2EFCD76F
:107AD8001E4A1F2A80A40AD0310E2518D8A406D021
:107AE800300E256E310E266E310E206E80B408D011
:107AF800310E2618D8A404D0030E1F6EE80E1E6E91
:107B080080A20AD0310E2218D8A406D0300E246ED6
:107B1800030E1F6EE80E1E6E1FBE06D0E80E1E5C1A
:107B2800030E1F58D8B002D080A0CBD72906D8A002
:107B38002A062AAE04D0000E2A6E090E296E80B2DB
:107B480002D0310E226E80A40AD0310E2518D8A496
:107B580006D0300E256E310E266E310E206E80B4A2
:107B680008D7310E2618D8A404D7300E246E300E4C
:107B7800236E310E256E310E2018D8A40BD0070EB7
:107B88000C6E000E0D6E7F0E0E6E000EFCEC3BF0C0
:107B9800300E206E140E0C6E000E0E6E000E0D6E62
:107BA800000E2BEC3CF0280E0C6E000E0E6E010E33
:107BB8000D6E000E2BEC3CF03C0E0C6E000E0E6EA3
:107BC800020E0D6E000E2BEC3CF0500E0C6E000EEB
:107BD8000E6E030E0D6E000E2BEC3CF0640E0C6E58
:107BE800000E0E6E040E0D6E000E2BEC3CF0140E03
:107BF8000C6E000E0E6E050E0D6E040E2BEC3CF096
:107C0800280E0C6E000E0E6E060E0D6E040E2BEC7A
:107C18003CF03C0E0C6E000E0E6E070E0D6E040E40
:107C28002BEC3CF0500E0C6E000E0E6E080E0D6E16
:107C3800040E2BEC3CF0640E0C6E000E0E6E090E5A
:107C48000D6E040E2BEC3CF094D6000000000000F2
:107C580000005F00000007000700147F147F142451
:107C68002A7F2A127E2525251A36495522500005D5
:107C7800030000001C2241000041221C00082A1CAD
:107C88002A0808083E0808005030000008080808BC
:107C980008003030000020100804023E5149453EDB
:107CA80000427F400042615149462141454B31180D
:107CB80014127F1027454545393C4A49493001711E
:107CC8000905033649494936064949291E00363609
:107CD8000000005636000000081422411414141441
:107CE8001441221408000201510906324979413E23
:107CF8007E1111117E7F494949363E414141227F1B
:107D08004141221C7F494949417F090901013E41FE
:107D18004151327F0808087F00417F4100204041DF
:107D28003F017F081422417F404040407F02040207
:107D38007F7F0408107F3E4141413E7F09090906C3
:107D48003E4151215E7F0919294646494949310179
:107D5800017F01013F4040403F1F2040201F7F20FE
:107D680018207F63140814630304780403615149DD
:107D7800454300007F4141020408102041417F0033
:107D88000004020102044040404040000102040097
:107D980020545454787F4844443838444444203864
:107DA8004444487F3854545418087E090102081482
:107DB80054543C7F0804047800447D40002040442B
:107DC8003D00007F10284400417F40007C041804D7
:107DD800787C0804047838444444387C1414140823
:107DE800081414187C7C08040408485454542004CB
:107DF8003F4440203C4040207C1C2040201C3C400C
:107E080030403C44281028440C5050503C446454A2
:107E18004C44000836410000007F0000004136084D
:107E28000008082A1C08081C2A08080800AA0008D4
:107E3800003838380000000000000000000000F0A2
:107E4800F00F0F0F0F0F0FF0F000FFFF0000F0F022
:107E58000F0FFFFF00FFFF0F0F00000000FFFF00E4
:107E680000000F0F0F0F0F0F00000000000F0FFF93
:107E7800FFFF0000000000000000FFFFFF000000FF
:107E88000000000000FFFFFF000000000F0F0F0FB1
:107E98000F0F0F0F0F0F0FF0F00F0F0F0F0F0FF047
:107EA800F000000000000000F0F00F0F000000F0EC
:107EB800F00F0F00000000000F0F0F0F0F0F0F0F34
:107EC8000F0F000E0E0E0E0E0E0E0CF8F000000036
:107ED800E0E0E0E0E0E0FFFF00000000000000005C
:107EE80000FFFF0007070707070707030100000057
:107EF8000000000000F0F0FFFF000000F0F00F0F9E
:107F08000000FFFF00000F0F0F0F0F0F0FFFFF0FF5
:107F180000000000000000000F0F00FFFF0F0F0F10
:107F28000F0F0F0F0F000F0F0F0F0F0F0F0FFFFF88
:107F380000F0F0000000000000FFFF000F0F0F0F1F
:107F48000F0F0F0F0F0F00FFFF0F0F0F0F0F0F0F68
:107F58000F00FFFFF0F0F0F0F0F0F0F000FFFF008E
:107F68000000000000FFFF000F0F0F0F0F0F0F0F93
:107F78000F0F00FFFF0F0F0F0F0F0FFFFF00000085
:107F8800000000000000FFFF0000000000000000EB
:107F980000FFFF0000000000000000000F0F00FFBE
:107FA800FF0F0F0F0F0F0FFFFF00FFFFF0F0F0F0B4
:107FB800F0F0FFFF00FFFF000000000000FFFF00DF
:107FC8000F0F0F0F0F0F0F0F0F0F00FFFF0F0F0FE8
:107FD8000F0F0FFFFF00FFFFF0F0F0F0F0F0FFFFD2
:107FE800000000000000000000FFFF000F0F0F0F4F
:087FF8000F0F0F0F0F0F000027
:020000040030CA
:0E000000FF021900FFA580FF0FC00FE00F40A8
:00000001FF
