:04000000AEEF00F06F
:060008004F823EEF0DF0F7
:100018004F80D8CF01F0E8CF02F0E0CF03F0D9CF7E
:1000280004F0DACF05F09EAA89D0640EAE18D8A4E1
:1000380008D00001FE05FF11D8A403D0300E01013D
:10004800F06F610EAE18D8A407D00001FE05FF11AD
:10005800D8A402D0300EF86F730EAE18D8A407D00B
:100068000001FE51FF11D8A402D0300EF96F740EB2
:10007800AE18D8A403D0300E0001F66F660EAE1885
:10008800D8A40BD00001FE05FF11D8A406D0000E9D
:10009800FF6F000EFE6F300EF76F0101FEBF11D02B
:1000A800FE5104E1050EFD5DD8A00BD0F3C1F2F1BD
:1000B800F4C1F3F1F5C1F4F1F6C1F5F1AECFF6F103
:1000C8000AD0F20EFD25D96E010EFE21DA6EAECFF2
:1000D800DFFFFD4BFE2B620EF219D8A410D06F0E75
:1000E800F319D8A40CD06E0EF419D8A408D0750E44
:1000F800F519D8A404D0730EF619D8B414D0420E4A
:10010800F219D8A41BD04F0EF319D8A417D04E0E4D
:10011800F419D8A413D0550EF519D8A40FD0530E3E
:10012800F619D8A40BD00001F3BF06D0F35106E1AD
:10013800030EF25DD8B002D0F24BF32B05C0DAFF04
:1001480004C0D9FF03C0E0FF02C0E8FF01C0D8FF28
:100158004F90100032EF0AF07AEC0DF0E0EC0DF061
:10016800C9EC0DF0F4EC0DF0310E0001F419D8A42F
:100178001CD0480ED76EE50ED66ED58E6DEC0BF002
:10018800300E0001F519D8B4FBD7310EF56FD59EA6
:10019800070E116E000E126E7F0E136E000E17EC16
:1001A8000CF0300E0001F46FDFD7310E0101ED19AC
:1001B800D8A40FD0070E116E000E126E7F0E136EAC
:1001C800000E17EC0CF0300E0101ED6F2FEC08F06B
:1001D800CBD7310EEC19D8A406D0A6EC05F0300E1A
:1001E8000101EC6FC1D780A20BD0310E0001F919C3
:1001F800D8A406D0FE51FF11D8A402D0300EF96F52
:1002080080B29AD0300E0001F919D8A495D0010116
:10021800FB05FC11D8A40DD0000EFC6F000EFB6F7F
:10022800000E0001F36F030EF26F000EFD6F000E5B
:10023800FC6F310E0001F96F070E116E000E126E81
:100248007F0E136E000E17EC0CF0000E0001EB6F22
:10025800040EEA6F300EF56FE0EC0DF0D58E4DD040
:10026800EA05EB11D8A434D0070E116E000E126EF9
:100278007F0E136E000E17EC0CF021EEDEF010EE80
:10028800DAF0040EDBCFE3FFE806FCE2000E000123
:10029800E56F000EE46F000EED6F0A0EEC6FEDBF18
:1002A80006D0ED5120E10F0EEC5DD8B01CD0ECC0AB
:1002B80011F0E451DA0FD96EDA6ADF50126E040ECB
:1002C800A6EC0BF00001E44BE52BEC4BED2BE7D74C
:1002D800370E116EFF0EEA25126EFF0EEB21136E1C
:1002E800020E72EC09F0300E0001F519D8B4FBD7F4
:1002F800300EF56FEA07D8A0EB070001EBBF05D079
:10030800EB51AEE1EA05D8B0ABD7D59E070E116E1A
:10031800000E126E7F0E136E000E17EC0CF09FECA1
:100328000CF0D9EC0AF0D6EC09F086EC0AF0000ED5
:100338000001FF6F010EFE6F80A80FD0310E000183
:10034800F719D8A40AD0FE05FF11D8A406D0000ECC
:10035800FF6F000EFE6F300EF76F80B812D0300EB0
:100368000001F719D8A40DD0310EF76F070E116EE2
:10037800000E126E7F0E136E000E17EC0CF03FECA1
:1003880007F080AA07D0310E0001F619D8A402D0D0
:10039800300EF66F80BA9FD0300E0001F619D8A43F
:1003A8009AD0310EF66F000EFD6F000EFC6F000E36
:1003B800F36F030EF26F000E4E6E010E4D6E000EBF
:1003C8004C6E010E4B6E000E4A6E020E496E070E01
:1003D800116E000E126E7F0E136E000E17EC0CF0ED
:1003E800000E0001EF6F040EEE6F300EF56FE0ECBB
:1003F8000DF0D58E4DD0EE05EF11D8A434D0070EF0
:10040800116E000E126E7F0E136E000E17EC0CF0BC
:1004180021EED9F010EEDFF0040EDBCFE3FFE806A3
:10042800FCE2000E0001E76F000EE66F000EF16FB0
:100438000A0EF06FF1BF06D0F15120E10F0EF05D0A
:10044800D8B01CD0F0C011F0E651DF0FD96EDA6ACF
:10045800DF50126E040EA6EC0BF00001E64BE72B02
:10046800F04BF12BE7D7370E116EFF0EEE25126E0B
:10047800FF0EEF21136E020E72EC09F0300E000130
:10048800F519D8B4FBD7300EF56FEE07D8A0EF07F3
:100498000001EFBF05D0EF51AEE1EE05D8B0ABD704
:1004A800D59E070E116E000E126E7F0E136E000E93
:1004B80017EC0CF09FEC0CF0D9EC0AF0D6EC09F034
:1004C80086EC0AF00001FE51FF11D8A404D0000EFA
:1004D800FF6F010EFE6F0001FE51FF11D8B444D624
:1004E80056EC0EF0640EF725F96F000EF821FA6F3E
:1004F80009EC09F0000E0001E96F000EE86F3ED02C
:10050800030E456E980EE82EFED7452EFCD709EC53
:1005180009F080AA15D0310E0001F619D8A410D020
:10052800300EF66F000EFF6F000EFE6F010E010118
:10053800F9250001E86F000E0101FA210001E96FB9
:1005480080A819D0310E0001F719D8A414D0FE05DF
:10055800FF11D8A410D0000EFF6F000EFE6F300EF2
:10056800F76F010E0101F9250001E86F000E010186
:10057800FA210001E96F0001E84BE92B0101F9516B
:100588000001E85DE951800A456E0101FA51800ACF
:100598004558D8A0B5D70001FE51FF11D8B4E4D50D
:1005A800060E4B184C10D8A413D0FF0E456EFF0E44
:1005B800466E4DC047F04EC048F04550472646505D
:1005C80048224950471804E14A504818D8B454D032
:1005D800070E4B184C10D8A413D0FF0E456EFF0E13
:1005E800466E4DC047F04EC048F04550472646502D
:1005F80048224950471804E14A504818D8B43CD01A
:10060800060E4B184C10D8A407D04D50491804E1D9
:100618004E504A18D8B430D0070E4B184C10D8A4F6
:1006280007D04D50491804E14E504A18D8B424D088
:10063800060E4B184C10D8A40DD0010E4D24456E53
:10064800000E4E20466E4950451804E14A5046189F
:10065800D8B412D0070E4B184C10D8A427D0010ECE
:100668004D24456E000E4E20466E495045181EE139
:100678004A504618D8A41AD0000E4C6E010E4B6E84
:10068800CAEC0CF012C014F013C015F0000E176E6F
:10069800190E166EDFEC0BF014C049F015C04AF0C5
:1006A8000001FC4BFD2B86EC0AF0DAD04CBE06D0DC
:1006B8004C504DE1070E4B5CD8B049D04BC011F0FF
:1006C8004950050DF3CF12F04950050DF350050FB1
:1006D800136E4B5017EC0CF04B4A4C2A060E4B1875
:1006E8004C10D8A413D0FF0E456EFF0E466E4DC0B9
:1006F80047F04EC048F045504726465048224950DA
:10070800471804E14A504818D8B4B6D7060E4B1813
:100718004C10D8A407D04D50491804E14E504A183F
:10072800D8B4AAD7060E4B184C10D8A40DD0010E79
:100738004D24456E000E4E20466E4950451804E182
:100748004A504618D8B498D762EC0EF089D0070EF4
:100758004B184C10D8A484D0070E4B184C10D8A4B2
:1007680013D0FF0E456EFF0E466E4DC047F04EC0CB
:1007780048F045504726465048224950471804E15A
:100788004A504818D8B478D7070E4B184C10D8A43C
:1007980007D04D50491804E14E504A18D8B46CD7C8
:1007A800070E4B184C10D8A40DD0010E4D24456EE1
:1007B800000E4E20466E4950451804E14A5046182E
:1007C800D8B45AD74BC011F04950050DF3CF12F0E9
:1007D8004950050DF350050F136E4B5017EC0CF0F4
:1007E80062EC0EF04BC011F04950050DF3CF12F03A
:1007F8004950050DF350050F136E4B5017EC0CF0D4
:10080800000E4C6E010E4B6ECAEC0CF012C014F0C8
:1008180013C015F0000E176E190E166EDFEC0BF0F4
:1008280014C049F015C04AF00001F207D8A0F30738
:10083800F251F311D8A414D0000EFF6F000EFE6F12
:10084800070E116E000E126E7F0E136E000E17EC5F
:100858000CF037EC04F0000E0101FC6F010EFB6F89
:10086800D6EC09F081D422EED1F010EEA8F0050EF6
:10087800DBCFE3FFE806FCE222EEB6F010EE9DF0D7
:100888000A0EDBCFE3FFE806FCE222EEA8F010EE4A
:1008980077F00D0EDBCFE3FFE806FCE2000E000167
:1008A800BD6F000EBC6F000EB56F070EB46FB4C0FD
:1008B80011F0BC51A80FD96EDA6ADF50126E000E23
:1008C800A6EC0BF00001BC4BBD2B020EB427000EAA
:1008D800B523B5BFECD7B55104E1140EB45DD8A06B
:1008E800E6D7000EBD6F000EBC6F000EB76F050E89
:1008F800B66FB6C011F0BC519D0FD96EDA6ADF50E1
:10090800126E040EA6EC0BF00001BC4BBD2BB64BCF
:10091800B72BB7BFEED7B75104E1100EB65DD8A01C
:10092800E8D7000EBD6F000EBC6F000EB96F050E44
:10093800B86FB8C011F0BC51770FD96EDA6ADF50C2
:10094800126E020EA6EC0BF00001BC4BBD2BB84B8F
:10095800B92BB9BFEED7B95104E1130EB85DD8A0D1
:10096800E8D7FDBF06D0FD510EE10A0EFC5DD8B0F8
:100978000AD0100E1A6EFCC01BF0FDC01CF0040E4D
:10098800BFEC07F036D0FDBF34D0FD5104E10A0EAC
:10099800FC5DD8A02ED0FCC006F0FDC007F0000E0C
:1009A800096E0A0E086E2BEC0BF006C0B0F007C0FB
:1009B800B1F0100E1A6EB0C01BF0B1C01CF0040EDE
:1009C800BFEC07F0FCC014F0FDC015F0000E176E68
:1009D8000A0E166EDFEC0BF014C0B2F015C0B3F0BF
:1009E800110E1A6EB2C01BF0B3C01CF0040EBFEC9F
:1009F80007F00001FC51FA5DFB51800A416EFD5180
:100A0800800A4158D8B004D0FCC0FAF0FDC0FBF011
:100A1800FBBF06D0FB510EE10A0EFA5DD8B00AD032
:100A2800130E1A6EFAC01BF0FBC01CF0020EBFECCE
:100A380007F036D0FBBF34D0FB5104E10A0EFA5D53
:100A4800D8A02ED0FAC006F0FBC007F0000E096E41
:100A58000A0E086E2BEC0BF006C0B0F007C0B1F020
:100A6800130E1A6EB0C01BF0B1C01CF0020EBFEC22
:100A780007F0FAC014F0FBC015F0000E176E0A0E4E
:100A8800166EDFEC0BF014C0B2F015C0B3F0140E04
:100A98001A6EB2C01BF0B3C01CF0020EBFEC07F018
:100AA80022EE19F010EE60F0160EDBCFE3FFE80639
:100AB800FCE2000E0001BD6F000EBC6F000EBB6FA4
:100AC800010EBA6FBAC011F0BC51600FD96EDA6A64
:100AD800DF50126E060EA6EC0BF00001BC4BBD2BCE
:100AE800BA4BBB2BBBBFEED7BB5104E1180EBA5DA6
:100AF800D8A0E8D7000EAF6F000EAE6F850E126E4D
:100B0800136AE40E146E7F0E156EFCC016F0FDC05D
:100B180017F0A1EC06F00BD09EA8FED70001AE514D
:100B2800850FD96EDA6ADF50AD6EAE4BAF2B000180
:100B3800AFBFF2D7AF5105E1180EAE5DD8B01200C5
:100B4800EBD7120022EEC1F010EEC3F0080EDBCF97
:100B5800E3FFE806FCE2000E0001D96F000ED86F33
:100B6800000ECD6F040ECC6FCCC011F0D851C30F5E
:100B7800D96EDA6ADF50126E000EA6EC0BF0000197
:100B8800D84BD92B020ECC27000ECD23CDBFECD7E6
:100B9800CD5104E1160ECC5DD8A0E6D722EE45F083
:100BA80010EE60F0140EDBCFE3FFE806FCE2000E67
:100BB800D96F000ED86F000ECF6F010ECE6FCEC06A
:100BC80011F0D851600FD96EDA6ADF50126E020E3A
:100BD800A6EC0BF00001D84BD92BCE4BCF2BCFBFB7
:100BE800EED7CF5104E1160ECE5DD8A0E8D722EE9D
:100BF80096F010EEB1F0110EDBCFE3FFE806FCE251
:100C0800000ED96F000ED86F000ED16F010ED06F95
:100C1800D0C011F0D851B10FD96EDA6ADF50126E18
:100C2800030EA6EC0BF00001D84BD92BD04BD12BDF
:100C3800D1BFEED7D15104E1130ED05DD8A0E8D7CB
:100C480022EE83F010EE9EF0120EDBCFE3FFE806F3
:100C5800FCE2000ED96F000ED86F000ED36F010EA4
:100C6800D26FD2C011F0D8519E0FD96EDA6ADF5018
:100C7800126E040EA6EC0BF00001D84BD92BD24B08
:100C8800D32BD3BFEED7D35104E1140ED25DD8A035
:100C9800E8D722EE6FF010EE8AF0130EDBCFE3FFF9
:100CA800E806FCE2000ED96F000ED86F000ED56F73
:100CB800010ED46FD4C011F0D8518A0FD96EDA6AF8
:100CC800DF50126E050EA6EC0BF00001D84BD92BA5
:100CD800D44BD52BD5BFEED7D55104E1150ED45D35
:100CE800D8A0E8D722EE30F010EE75F0140EDBCF66
:100CF800E3FFE806FCE2000ED96F000ED86F000E85
:100D0800D76F010ED66FD6C011F0D851750FD96EB6
:100D1800DA6ADF50126E060EA6EC0BF00001D84B13
:100D2800D92BD64BD72BD7BFEED7D75105E1160E07
:100D3800D65DD8B01200E7D71200160E196E88D00B
:100D4800250E1E18D8B409D012C0D9FF13C0DAFF77
:100D58001EC0DFFF124A132A7BD0000E1A6E14C081
:100D6800F6FF15C0F7FF144A152A0800F5CF1EF044
:100D78001E50000AD8B478D0640AD8B403D00D0A3B
:100D8800D8A466D01950D96EDA6ADECF1CF0DDCF50
:100D98001DF0020E19261DAE06D0030E1A121C6C89
:100DA8001D1ED8B01D2A010E1E6E1E50020D050E06
:100DB800F324F66E7F0EF420F76E0900F5501C5CE4
:100DC8000900F5501D58D8A005D01E2A050E1E187A
:100DD800D8A4EBD71AC018F0030E1816D8B408D048
:100DE80012C0D9FF13C0DAFF2D0EDF6E124A132A84
:100DF8001EC01BF029D01B50020D050EF324F66E01
:100E08007F0EF420F76E0900F5CF08F00A00F5CF41
:100E180009F01CC006F01DC007F0F4EC0CF006C089
:100E28000DF007C00EF0000E106E0A0E0F6E1DECCE
:100E38000DF00D50300F1E6E12C0D9FF13C0DAFF2F
:100E48001EC0DFFF124A132A1B061B28D8A4D3D7BB
:100E580014C0F6FF15C0F7FF144A152A0800F5CF8D
:100E68001EF01E50D8A46CD712C0D9FF13C0DAFFE9
:100E7800000EDF6E120021EEE3F010EE8EF0040E8D
:100E8800DBCFE3FFE806FCE2000E00019A6F000EDC
:100E9800996F000E946F070E936F93C011F09951DC
:100EA8008E0FD96EDA6ADF50126E000EA6EC0BF0C8
:100EB8000001994B9A2B020E9327000E942394BF9E
:100EC800ECD7945104E1130E935DD8A0E6D722EE37
:100ED80000F010EE60F0180EDBCFE3FFE806FCE24E
:100EE800000E9A6F000E996F000E966F000E956FA8
:100EF80095C011F09951600FD96EDA6ADF50126E01
:100F0800020EA6EC0BF00001994B9A2B954B962BF1
:100F180096BFEED7965104E1190E955DD8A0E8D793
:100F280022EE5AF010EE79F0140EDBCFE3FFE8065C
:100F3800FCE2000E9A6F000E996F000E986F000E7B
:100F4800976F97C011F09951790FD96EDA6ADF500F
:100F5800126E030EA6EC0BF00001994B9A2B974BDF
:100F6800982B98BFEED7985105E1150E975DD8B02C
:100F78001200E7D712003E6E1CAE15D01AC011F051
:100F88002D0E126E3E50A6EC0BF01A2A1BC006F06E
:100F98001CC007F0FF0E096E086808EC0EF006C0CA
:100FA8001BF007C01CF0000E406E000E3F6E1B5079
:100FB8001C10D8A426D0300E1E6E3F4A402A21D0DD
:100FC8003F501E0FD96EDA6A1BC014F01CC015F012
:100FD800000E176E0A0E166EDFEC0BF01450300F71
:100FE800DF6E3F4A402A1BC006F01CC007F0000E07
:100FF800096E0A0E086E2BEC0BF006C01BF007C03A
:101008001CF01CBE20D01C50DBE11B04D8A01BD058
:10101800D7D73F06D8A040063F501E0FD96EDA6AD0
:10102800DF501D6E1D501B6E1C6A1AC011F01BC0CC
:1010380012F03E50A6EC0BF01A2A7F0E1A6403D069
:101048003E2A000E1A6E40BE12004050E2E13F04F4
:10105800D8A01200DED7B50E126E010E136EC60EA2
:10106800146E7F0E156EA1EC06F0000E0101D26F12
:10107800000ED16F0CD09EA8FED7B50ED125D96E23
:10108800010ED221DA6EDF50AD6ED14BD22BD2BF1A
:10109800F2D7D25104E11C0ED15DD8A0ECD7000ED6
:1010A800126E010E136E0F0E146E7F0E156EA1ECEC
:1010B80006F0000E0101D26F000ED16F0CD09EA871
:1010C800FED7000ED125D96E010ED221DA6EDF507F
:1010D800AD6ED14BD22BD2BFF2D7D25104E1940ED0
:1010E800D15DD8A0ECD7940E126E010E136EA30E2C
:1010F800146E7F0E156EA1EC06F0000E0101D26F82
:10110800000ED16F0CD09EA8FED7940ED125D96EB3
:10111800010ED221DA6EDF50AD6ED14BD22BD2BF89
:10112800F2D7D25105E1210ED15DD8B01200EBD72C
:1011380012005241312F737C3D3E7C636F6E74699F
:101148006E75617C706172746964615241312F738C
:101158007C3D3E7C726573746172747C62757474D4
:101168006F6E5241352F747C3D3E7C726573657499
:101178007C627574746F6E5241312F737C3D3E7C76
:1011880073746172747C627574746F6E5241352F1A
:10119800747C3D3E7C6E6F76617C706172746964AC
:1011A800615241342F667C3D3E7C73746F707C6263
:1011B8007574746F6E5241332F647C3D3E7C6D6F45
:1011C80076657C72696768745241322F617C3D3E56
:1011D8007C6D6F76657C6C65667468696768657335
:1011E800747C73636F72653A796F75727C73636F21
:1011F80072653A42454E56494E475554506F696E8E
:0912080074733A44454645415413
:1012120080A607D0310E0101F019D8A402D0300EF9
:10122200F06F300E0101F019D8A41ED0310EEF1963
:10123200D8A41AD04EBE06D04E5006E1180E4D5C10
:10124200D8B002D04D4A4E2A070E116E000E126E11
:101252007F0E136E060E17EC0CF09FEC0CF0D9EC1F
:101262000AF0300E0101EF6F80B604D0310EF06F3C
:10127200310EEF6F80A407D0310E0001F819D8A407
:1012820002D0300EF86F300E0001F819D8A420D029
:10129200310E0101F119D8A41BD04EBE09D04E5017
:1012A20004E1020E4D5CD8A003D04D06D8A04E0634
:1012B200070E116E000E126E7F0E136E060E17ECE5
:1012C2000CF09FEC0CF0D9EC0AF0300E0101F16F3A
:1012D20080B41200310E0001F86F310E0101F16F7E
:1012E2001200196E12C006F013C007F0000E096E4C
:1012F2002C0E086E08EC0EF012C006F013C007F0B8
:10130200000E096E2C0E086E08EC0EF006C01BF0E3
:1013120007C01CF031D011C01AF0000E1E6E000E74
:101322001D6E4D0E146E7D0E156E1B5014261C5034
:1013320015221D5014261E50152214C0F6FF15C08A
:10134200F7FF0800F550176E186A1AC00BF017C0A5
:101352000CF0195046EC0CF01A2A1D4A1E2A1EBE29
:10136200E0D71E5004E10B0E1D5CD8A0DAD7192A73
:101372000B0E1B26000E1C2212C006F013C007F033
:10138200000E096E2C0E086E08EC0EF02C0E0626CE
:10139200000E072206501B5C1C50800A146E075078
:1013A200800A1458D8B01200B6D70001F251F311D6
:1013B200D8A40AD0000E116E5F0E126E7D0E136E4F
:1013C200000E17EC0CF01200F205F311D8A411D0A4
:1013D200000E116E640E126E7D0E136E000E17EC6F
:1013E2000CF0130E116E220E126E000EA6EC0BF014
:1013F2001200020EF219F311D8A418D0000E116EC9
:101402006E0E126E7D0E136E000E17EC0CF0130EA4
:10141200116E220E126E000EA6EC0BF0150E116E5E
:10142200220E126E000EA6EC0BF01200030EF21941
:10143200F311D8A41200130E116E220E126E000EBA
:10144200A6EC0BF0150E116E220E126E000EA6EC1B
:101452000BF0170E116E220E126E000EA6EC0BF0A0
:1014620012003A0EF66E110EF76E000EF86E02EED4
:1014720000F010EED7F00900F5CFEEFFE550E15095
:10148200FAE1360EF66E1C0EF76E000EF86E01EEE5
:10149200D3F010EE1FF00900F5CFEEFFE550E1505A
:1014A200FAE1D40EF66E1C0EF76E000EF86E00EE28
:1014B200F2F010EE08F00900F5CFEEFFE550E15032
:1014C200FAE1DC0EF66E1C0EF76E000EF86E00EE00
:1014D20049F010EE06F00900F5CFEEFFE550E150BD
:1014E200FAE101EEF2F00D0EEE6AE806FDE100010E
:1014F200FF6BFE6BFD6BFC6BFB6BFA6B4F904F92BD
:10150200000EF86E0001B0EF00F0000E116E2D0E0D
:10151200126E370E136E000E17EC0CF00001FDBFB9
:1015220006D0FD510EE10A0EFC5DD8B00AD0090EBC
:101532001A6EFCC01BF0FDC01CF0000EBFEC07F0E1
:101542001200FDBF1200FD5104E10A0EFC5DD8A09D
:101552001200FCC006F0FDC007F0000E096E0A0E74
:10156200086E2BEC0BF006C041F007C042F0090EEA
:101572001A6E41C01BF042C01CF0000EBFEC07F017
:10158200FCC014F0FDC015F0000E176E0A0E166EA8
:10159200DFEC0BF014C043F015C044F00A0E1A6ED3
:1015A20043C01BF044C01CF0000EBFEC07F0120059
:1015B20022EECAF010EE1AF0060EDBCFE3FFE806C9
:1015C200FCE221EED3F010EE21F0050EDBCFE3FFBB
:1015D200E806FCE2000E286E000E276E000E2A6E50
:1015E200010E296E29C011F027501A0FD96EDA6A3E
:1015F200DF50126E000EA6EC0BF0274A282A294A69
:101602002A2A2ABEEFD72A5004E1080E295CD8A064
:10161200E9D7000E286E000E276E000E2C6E0D0EFE
:101622002B6E2BC011F02750210FD96EDA6ADF50D2
:10163200126E000EA6EC0BF0274A282A2B4A2C2AFF
:101642002CBEEFD72C5005E1130E2B5CD8B0120044
:10165200E8D71200000E0B6E09AE06D0086C091E08
:10166200D8B0092A010E0B6E07AE06D0066C071E13
:10167200D8B0072A010E0B1A000E0D6E000E0C6E6A
:1016820008500910D8B41CD0010E0A6E04D0D890AC
:10169200083609360A2A09AEFAD7D8900C360D3622
:1016A2000850065C09500758D8A005D00850065EBD
:1016B2000950075A0C80D890093208320A2EEDD709
:1016C2000B50D8B404D00C6C0D1ED8B00D2A0CC02F
:1016D20006F00DC007F01200000E166E000E156E19
:1016E200000E146E000E136E000E166E000E156EB6
:1016F200000E186E000E176E590E1324F66E770E3A
:101702001420F76E0800F550116E126A134A142A5B
:1017120017C00BF011C00CF0155046EC0CF0174A34
:10172200182A18BEE9D7185004E1800E175CD8A019
:10173200E3D7154A162A16BEDBD7165005E1080E66
:10174200155CD8B01200D4D71200136EE00E12242A
:10175200066E076AFF0E0722000E096E050E086E5E
:1017620008EC0EF006C016F007C017F01150050D78
:10177200F3CF11F0000E196E000E186E590E1624DA
:10178200F66E7B0E1720F76E0800F550146E156A80
:1017920011C00BF014C00CF0135046EC0CF0112ADF
:1017A200164A172A184A192A19BEE8D7195005E10C
:1017B200050E185CD8B01200E1D71200000E196EA7
:1017C20015AE06D0146C151ED8B0152A010E196E6E
:1017D20017AE04D0166C171ED8B0172A1650171061
:1017E200D8B418D0010E186E04D0D8901636173619
:1017F200182A17AEFAD71650145C17501558D8A0ED
:1018020004D01650145E1750155AD890173216325B
:10181200182EF1D71950D8B404D0146C151ED8B0B4
:10182200152A14C014F015C015F01200176E17C057
:1018320018F0196A1CD012C01AF01B6A09D01AC01B
:101842000BF0000E0C6E185046EC0CF01A4A1B2AD4
:101852001350146E156A1A50145C1550800A166ED5
:101862001B50800A1658D8B0EAD7184A192A1150C4
:10187200146E156A1850145C1550800A166E1950B1
:10188200800A1658D8A01200D6D70D6E400E0B60F3
:1018920004D0000E0F6E010E03D0000E0F6E020E6A
:1018A2000E6E0EC010F00D503AEC0EF00B505DECC7
:1018B2000DF01050B1EC0DF0000E936E1004D8B480
:1018C2008190020E1018D8B481928196818400F022
:1018D200818800F00CC083FF000E956E00F08198A5
:1018E200818081821200000E0E6E000E0F6E000EBD
:1018F200106E000E116E06A008D00A500E260B5074
:101902000F220C5010220D501122D8900A360B369D
:101912000C360D36D890093208320732063206509C
:10192200071008100910D8A4E6D70EC006F00FC0A1
:1019320007F010C008F011C009F012004D04116E3A
:10194200280E126E060EA6EC0BF04DC011F0290EF9
:10195200126E060EA6EC0BF04D28116E2A0E126EB8
:10196200060EA6EC0BF04D04116E2B0E126E070E36
:10197200A6EC0BF04DC011F02C0E126E070EA6EC69
:101982000BF04D28116E2D0E126E070EA6EC0BF009
:101992001200E8C106F0E9C107F0EAC108F0EBC1A4
:1019A20009F06D0E0A6E4E0E0B6EC60E0C6E410ED7
:1019B2000D6E74EC0CF006C0E8F107C0E9F108C046
:1019C200EAF109C0EBF1390E0101E827300EE923F3
:1019D200000EEA23000EEB23FF0EEA15126E7F0EB5
:1019E200EB15136E1200000E0B6E000E0A6E0850FD
:1019F2000910D8B41CD0010E0C6E04D0D890083651
:101A020009360C2A09AEFAD7D8900A360B36085096
:101A1200065C09500758D8A005D00850065E095048
:101A2200075A0A80D890093208320C2EEDD70AC024
:101A320006F00BC007F012000F501010D8B418D0E7
:101A4200010E116E04D0D8900F361036112A10AE46
:101A5200FAD70F500D5C10500E58D8A004D00F507A
:101A62000D5E10500E5AD89010320F32112EF1D74F
:101A72000DC00DF00EC00EF01200F2B4F2AA0BD09F
:101A8200300E0001F419D8A406D0310EF56FC20E43
:101A9200D76EF70E0DD0F2B4F2AA0CD0310E0001BF
:101AA200F419D8A407D0310EF56F480ED76EE50EA3
:101AB200D66EF2944F9211000A6E400E0A600CD05C
:101AC200010E086E0A50400996EC0DF0020E086EE7
:101AD200400E96EC0DF01200010E086E7F0E96EC91
:101AE2000DF0020E086E0A50C00F400996EC0DF080
:101AF2001200000E0F013B6F000E396F000E836E55
:101B0200000E816E000E956E000E936E2BEC0EF0A1
:101B1200070E116E000E126E7F0E136E000E17EC82
:101B22000CF0000E48EC0EF01200096E0850B1ECF9
:101B32000DF0000E936E0804D8B48190020E0818BE
:101B4200D8B481928196819400F0818800F009C016
:101B520083FF000E956E00F08198818081821200D1
:101B6200076E9568000E936E0704D8B48190020E3A
:101B72000718D8B481928186819400F0818800F0A0
:101B820083CF06F0819806BEF9D781808182120048
:101B9200AB8E9468000E0F013A6FB886AC9CAC8A8B
:101BA200AC98AC84100EAF6E9D989D8A9F9AAB88BC
:101BB200000E806E000E926E000E386F1200D59CE1
:101BC200D59AD588D596D584D582D590D08EF28EE9
:101BD200F28CF28EF28CF28AF184C20ED76EF70E7C
:101BE200D66ED59E120092803881C080C092C09479
:101BF200C194C196C190C192C294C296C298C29A2F
:101C0200C29CC096C088C09AC08EC2801200065084
:101C12000802F3CF0AF0F4CF0BF006500902F3509A
:101C22000B2607500802F3500B260AC006F00BC021
:101C320007F012004C697665733A5354415254537B
:101C42005441525450415553410100000031313149
:031C5200313131FC
:101C5600818A010E086E3F0E96EC0DF0020E086E9C
:101C66003F0E96EC0DF0000E48EC0EF012000A6ED8
:101C7600010E086E0A50B80996EC0DF0020E086EB9
:101C86000A50B80996EC0DF012000A6E010E086EA5
:101C96000A50C00996EC0DF0020E086E0A50C009F3
:101CA60096EC0DF01200C282C2B2FED7C4500101FA
:101CB600F86FF76BC350F727000EF823120049C0E0
:101CC60011F03F0E126E4B50A6EC0BF01200030003
:0C1CD600313031313131020001000100D9
:1077580000808080C0F0F0F8FFFFFFF8FFFFF8FF1F
:10776800FFFFF8FFFFF8FFFFFFFFFFFFF8F0F080D3
:107778008080800000000000000000000000000081
:1077880000000000000000000000000000000000F1
:1077980000000000000000000000808080808080E1
:1077A8008000000000000000000000000000000051
:1077B80000000000000000000000000000000000C1
:1077C80000000000000000000000000000000000B1
:1077D80000D9DBDBDFFFFFFFFFFFFFFFFFFFFFFF3E
:1077E800FFFFFFFFFFFFFFFFFCFFFFFCFFFFFFDFC7
:1077F800DBDBDB0000000000000000F0F0F8F81808
:10780800181838FCF8F8E000000E0E0EFEFEFFFF18
:1078180007070700F0FCFEFF0F0701010101030144
:1078280083000000000000000000000000000000CD
:107838000000000000000000000000000000000040
:107848000000000000000000000000000000000030
:10785800006DEDEDEFFFFFFFFFFFFFFFFFFFFFFFF5
:10786800FFFFFFFFFFFFFFFFFFFFFFFFFFFFFFED32
:10787800EDEDED0000000000000000FFFFFFFF0C31
:107888000C0C0E0707030100007070707F7F3F3FEC
:10789800383838000107070F0E1C0C0C0C0C0E07AB
:1078A80007000000000000000000000000000000C9
:1078B80000000000000000000000000080808080C0
:1078C80080C0C0C0C08000000000000000000000B0
:1078D800000707070F3F3F7FFFFFFF7FFFFF7FFF87
:1078E800FFFF7FFFFF7FFFFFFFFFFFFF7F3F3F0798
:1078F8000707060000000000000000010101010068
:1079080000000080808080808080000000008080EF
:10791800C0C0C0C060E0C0C0000000F0F0F0F000DF
:107928000000000000FCFCFCFC00000000FEFEFE65
:10793800FEC6C6C6C6C66303000000FFFFFFFF61A0
:10794800E1F1F9FFBF9F0F000000000000000000F8
:10795800000000000000000003030300030300030D
:1079680083E3E0E3636063337363E30300000000D1
:10797800E0F0FC7C7CFCF8E0C00000000E07070784
:1079880007FFFFFFFF030303030100F8FEFFFF8368
:1079980001000000008080C1000000FFFFFFFF071A
:1079A8000707070707FFFFFFFF000000007F7F7F33
:1079B8003F303030303018180000001F1F1F1F00E4
:1079C800000003070F0F0F0604000000000000006E
:1079D80000000000000000000000000000007CFF24
:1079E800FFFFC18000000080C0C0E00000E0FCFF95
:1079F800FF3F1F1C1C1F1F7F7F7E78400000000078
:107A0800003F3F1F1F0000000000000003030303A6
:107A1800070606060303030300000003030303002D
:107A2800000000000000000000000000000000004E
:107A3800000000000000000000000000000000003E
:107A4800000000000000000000000000000000002E
:107A5800000000000000000000000000000000001E
:107A680001010103030303010100000000000000FD
:107A780000000000000000000000000000000000FE
:107A880000000000000000000000000000000000EE
:107A980000000000000000000000000000C02010EE
:107AA80010101020000010F010000000000000204E
:107AB800101090600000E0101010E000002010107E
:107AC80090600000E0101010E000000000000000CE
:107AD800000000000000000000000000000000009E
:107AE800000000000000000000000000000000008E
:107AF800000000000000000000000000000000007E
:107B0800000000000000000000000000000000006D
:107B1800000000000000000000000000000304084E
:107B2800080808040000080F080000000000000C06
:107B38000A0908080000070808080700000C0A09D5
:107B480008080000070808080700000000000000F7
:107B580000000000000000005F00001E3E7C3E1E8A
:107B6800147F147F14242A7F2A1223130864623690
:107B780049552250000503000000F030F6FFF5F7E4
:107B8800F5FFF630F0000000030103607F7F037FFC
:107B98007F6003010300000030300000201008045B
:107BA800023E5149453E00427F40004261514946EC
:107BB8002141454B311814127F1027454545393C62
:107BC8004A49493001710905033649494936064988
:107BD80049291E00363600000056360000000814F9
:107BE800224114141414144122140800557F7F7F75
:107BF80055324979413E7E1111117E7F49494936F6
:107C08003E414141227F4141221C7F494949417FF0
:107C1800090901013E414151327F0808087F0041AE
:107C28007F41002040413F017F081422417F4040AE
:107C380040407F0204027F7F0408107F3E4141419B
:107C48003E7F090909063E4151215E7F09192946EF
:107C5800464949493101017F01013F4040403F1FEA
:107C68002040201F7F2018207F631408146303041A
:107C7800780403615149454300007F4141020408EB
:107C8800102041417F0000040201020440404040AE
:107C980040000102040020545454787F484444387A
:107CA8003844444420384444487F385454541808CD
:107CB8007E090102081454543C7F080404780044E7
:107CC8007D40002040443D00007F10284400417F53
:107CD80040007C041804787C080404783844444440
:107CE800387C14141408081414187C7C080404083C
:107CF8004854545420043F4440203C4040207C1CBD
:107D08002040201C3C4030403C44281028440C5063
:107D180050503C4464544C44000836410000000074
:107D28000000004136080008082A1C08081C2A0818
:107D3800080800AA000800383838000000000000D1
:107D48000000000000F0F00F0F0F0F0F0FF0F00011
:107D5800FFFF0000F0F00F0FFFFF00FFFF0F0F0005
:107D6800000000FFFF0000000F0F0F0F0F0F0000B3
:107D78000000000F0FFFFFFF0000000000000000E0
:107D8800FFFFFF0000000000000000FFFFFF0000F1
:107D980000000F0F0F0F0F0F0F0F0F0F0FF0F00F47
:107DA8000F0F0F0F0FF0F000000000000000F0F0C0
:107DB8000F0F000000F0F00F0F00000000000F0F81
:107DC8000F0F0F0F0F0F0F0F000E0E0E0E0E0E0ED1
:107DD8000CF8F0000000E0E0E0E0E0E0FFFF000069
:107DE80000000000000000FFFF0007070707070763
:107DF8000703010000000000000000F0F0FFFF0092
:107E08000000F0F00F0F0000FFFF00000F0F0F0F32
:107E18000F0F0FFFFF0F00000000000000000F0F02
:107E280000FFFF0F0F0F0F0F0F0F0F000F0F0F0F98
:107E38000F0F0F0FFFFF00F0F0000000000000FF21
:107E4800FF000F0F0F0F0F0F0F0F0F0F00FFFF0F88
:107E58000F0F0F0F0F0F0F00FFFFF0F0F0F0F0F013
:107E6800F0F000FFFF000000000000FFFF000F0F10
:107E78000F0F0F0F0F0F0F0F00FFFF0F0F0F0F0F39
:107E88000FFFFF000000000000000000FFFF0000DF
:107E980000000000000000FFFF00000000000000DC
:107EA80000000F0F00FFFF0F0F0F0F0F0FFFFF0056
:107EB800FFFFF0F0F0F0F0F0FFFF00FFFF00000020
:107EC800000000FFFF000F0F0F0F0F0F0F0F0F0F16
:107ED80000FFFF0F0F0F0F0F0FFFFF00FFFFF0F066
:107EE800F0F0F0F0FFFF000000000000000000FFCD
:107EF800FF000F0F0F0F0F0F0F0F0F0F0001000ADA
:107F0800006400E8031027494E535452554343492F
:107F18004F4E53200D0A612050455220414E415288
:107F28002041204C274553515545525241200D0AB6
:107F3800642050455220414E41522041204C41205E
:107F48004452455441200D0A732050455220494E51
:107F58004943494152204C412050415254494441DF
:107F6800200D0A7420504552205245494E49434934
:107F78004152204C412050415254494441200D0A5D
:107F8800662050455220504155534152204C4120C3
:107F980050415254494441200D0A00455343524927
:107FA80055524520424F4E5553204155474D454E59
:107FB800544120554E4120564944410D0A0042453E
:107FC8004E56494E47555420414C204A4F43204A6B
:107FD8004941424F2057414E470D0A000D0A48417A
:107FE80053204F4254494E4755542025642050553C
:087FF8004E5453200D0A000055
:020000040030CA
:0E000000FF021900FFA580FF0FC00FE00F40A8
:00000001FF
