:04000000DCEF3EF003
:107DAA00530166017B019101AA01C301DF01AA0EF9
:107DBA00F66E7D0EF76E000EF86E00EE01F010EE14
:107DCA000EF00900F5CFEEFFE550E150FAE11C6A2A
:107DDA001B6A1A6A196A00014EEF3FF0000E0F0182
:107DEA00496F000E3A6FF28EF28C9D829E92BA8291
:107DFA007C0EBB6EBD86BD84000EBE6EBD9ABD985C
:107E0A00BA849568000E836E000E3B6F1200000E56
:107E1A00146E12AE06D0116C121ED8B0122A010EC0
:107E2A00146E10AE06D00F6C101ED8B0102A010EB8
:107E3A00141A000E166E000E156E11501210D8B4D8
:107E4A001CD0010E136E04D0D89011361236132AA4
:107E5A0012AEFAD7D8901536163611500F5C12505A
:107E6A001058D8A005D011500F5E1250105A158024
:107E7A00D89012321132132EEDD71450D8B404D040
:107E8A00156C161ED8B0162A15C00FF016C010F0C1
:107E9A001200F3EC3EF083AC17D00DC0BBFF0DC04F
:107EAA0017F00EC018F0D89017361836020E17249D
:107EBA000F6E000E1820106E000E126E040E116E58
:107ECA000CEC3FF00F50BE6E83AA17D00BC0BBFF5D
:107EDA000BC017F00CC018F0D89017361836020EDF
:107EEA0017240F6E000E1820106E000E126E040E6C
:107EFA00116E0CEC3FF00F50BE6E83A817D009C06C
:107F0A00BBFF09C017F00AC018F0D8901736183608
:107F1A00020E17240F6E000E1820106E000E126E3D
:107F2A00040E116E0CEC3FF00F50BE6E83A617D0F4
:107F3A0007C0BBFF07C017F008C018F0D890173663
:107F4A001836020E17240F6E000E1820106E000E3F
:107F5A00126E040E116E0CEC3FF00F50BE6E83A42D
:107F6A0017D005C0BBFF05C017F006C018F0D8909F
:107F7A0017361836020E17240F6E000E1820106ED0
:107F8A00000E126E040E116E0CEC3FF00F50BE6E16
:107F9A0083A217D003C0BBFF03C017F004C018F0B8
:107FAA00D89017361836020E17240F6E000E1820B6
:107FBA00106E000E126E040E116E0CEC3FF00F5094
:107FCA00BE6E83A068D701C0BBFF01C017F002C014
:107FDA0018F0D89017361836020E17240F6E000EB6
:107FEA001820106E000E126E040E116E0CEC3FF08B
:067FFA000F50BE6E50D7CF
:020000040030CA
:0E000000FF021900FFA580FF0FC00FE00F40A8
:00000001FF
