:0400000011EF00F00C
:100008004E82F2B4F2AA07D0310E4D6EF30ED76EBF
:10001800CB0ED66EF2944E9211008CEF03F03EAEEA
:100028001DD0000E3E6E090E3D6E40BE04D03F0648
:10003800D8A0400613D042BE08D04106D8A0420638
:10004800000E406E3B0E3F6E09D048BE07D04706F3
:10005800D8A04806000E426E3B0E416E40AE17D047
:10006800000E3E6E090E3D6E42BE08D04106D8A075
:100078004206000E406E3B0E3F6E09D048BE07D0C8
:100088004706D8A04806000E426E3B0E416E42AEAF
:100098000DD0000E406E3B0E3F6E48BE07D047069F
:1000A800D8A04806000E426E3B0E416E48AE08D0FE
:1000B800000E486E000E476E000E426E3B0E416EFB
:1000C80048BE06D0485016E10A0E475CD8B012D098
:1000D800000E156E000E176E000E166E060E74ECEE
:1000E80001F0010E156E47C016F048C017F0060E55
:1000F80074EC01F042BE06D0425016E10A0E415C93
:10010800D8B012D0030E156E000E176E000E166EC4
:10011800060E74EC01F0040E156E41C016F042C0D4
:1001280017F0060E74EC01F040BE06D0405016E100
:100138000A0E3F5CD8B012D0060E156E000E176E70
:10014800000E166E060E74EC01F0070E156E3FC019
:1001580016F040C017F0060E74EC01F040BE0FD048
:10016800405004E10A0E3F5CD8A009D0060E156E77
:100178003FC016F040C017F0060E74EC01F042BE06
:100188000FD0425004E10A0E415CD8A009D0030EFA
:10019800156E41C016F042C017F0060E74EC01F05F
:1001A80048BE0FD0485004E10A0E475CD8A009D0D9
:1001B800000E156E47C016F048C017F0060E74EC16
:1001C80001F0090E156E3DC016F03EC017F0060E80
:1001D80074EC01F0020E0C6E3A0E0D6E060E8BECEE
:1001E80002F0050E0C6E3A0E0D6E060E8BEC02F048
:1001F800080E0C6E2E0E0D6E060E8BEC02F0120021
:1002080082A035D0300E4B18D8A431D049044A10FA
:10021800D8A409D0000E4A6E000E496E000E466E34
:10022800010E456E19D045044610D8A409D0000E19
:10023800466E000E456E000E446E010E436E0CD0E5
:1002480043044410D8A408D0000E446E000E436E38
:10025800000E4A6E010E496E310E4C6E310E4B6E19
:100268000D0E3C6EFC0EE82EFED73C2EFCD7310E50
:100278004C18D8A408D049044A10D8A404D0E4ECF7
:1002880001F013EC00F0310E4C18D8A41BD0450433
:100298004610D8A417D03D503E10D8A40FD03F50D8
:1002A8004010D8A40BD041504210D8A407D04750D2
:1002B8004810D8A403D013EC00F004D03D06D8A011
:1002C8003E06F9D7310E4C18D8A405D04304441083
:1002D800D8B413EC00F082B01200300E4B6E12004E
:1002E800396E17AE15D015C00CF02D0E0D6E3950A5
:1002F8008BEC02F0152A16C001F017C002F0FF0EB1
:10030800046E0368F9EC03F001C016F002C017F0A0
:10031800000E3B6E000E3A6E16501710D8A426D069
:10032800300E196E3A4A3B2A21D03A50190FD96E2D
:10033800DA6A16C001F017C002F0000E046E0A0E49
:10034800036EC4EC02F00150300FDF6E3A4A3B2ACC
:1003580016C001F017C002F0000E046E0A0E036EFC
:1003680049EC02F001C016F002C017F017BE20D009
:100378001750DBE11604D8A01BD0D7D73A06D8A06F
:100388003B063A50190FD96EDA6ADF50186E1850CA
:10039800166E176A15C00CF016C00DF039508BECAC
:1003A80002F0152A7F0E156403D0392A000E156E47
:1003B8003BBE12003B50E2E13A04D8A01200DED75F
:1003C800000E486E000E476E47C001F048C002F0AC
:1003D800FF0E046EC40E036EF9EC03F001C041F089
:1003E80002C042F047C001F048C002F0F10E046EAE
:1003F800F00E036EF9EC03F001C007F002C008F03C
:1004080041C001F042C002F0FF0E046EC40E036E3C
:10041800F9EC03F001500726025008220A0E0724BF
:100428003F6E000E0820406E47C001F048C002F041
:10043800730E046E600E036EF9EC03F001C007F052
:1004480002C008F041C001F042C002F0FD0E046E87
:10045800A80E036EF9EC03F001500726025008229B
:100468003FC001F040C002F0FF0E046EF60E036EAE
:10047800F9EC03F00150072602500822660E072403
:100488003D6E000E08203E6E1200000E066E04AE91
:1004980006D0036C041ED8B0042A010E066E02AE04
:1004A80006D0016C021ED8B0022A010E061A000EF0
:1004B800086E000E076E03500410D8B41CD0010E4D
:1004C800056E04D0D89003360436052A04AEFAD750
:1004D800D890073608360350015C04500258D8A05B
:1004E80005D00350015E0450025A0780D8900432A8
:1004F8000332052EEDD70650D8B404D0076C081E79
:10050800D8B0082A07C001F008C002F01200106E27
:10051800E00E0D24016E026AFF0E0222000E046E28
:10052800050E036EF9EC03F001C011F002C012F0E1
:100538000C50050DF3CF0CF0000E146E000E136E68
:10054800090E1124F66E7E0E1220F76E0800F55083
:100558000E6E0F6A0CC006F00EC007F010505EEC6D
:1005680003F00C2A114A122A134A142A14BEE8D797
:10057800145005E1050E135CD8B01200E1D7120043
:10058800000E066E02AE06D0016C021ED8B0022A1A
:10059800010E066E04AE04D0036C041ED8B0042A03
:1005A80003500410D8B418D0010E056E04D0D890AA
:1005B80003360436052A04AEFAD70350015C04500A
:1005C8000258D8A004D00350015E0450025AD890B3
:1005D80004320332052EF1D70650D8B404D0016C8A
:1005E800021ED8B0022A01C001F002C002F01200B7
:1005F800D58ED59CD59AD588D596D584D592D580D3
:10060800F28EF28CF28AF184F30ED76ECB0ED66E90
:10061800000E0F013A6F000E3B6F000E396F000E8F
:10062800826E000E836E000E816E9468000E956EC9
:10063800000E936E0CEC04F0070E0C6E000E0D6E9F
:100648007F0E0E6E000E2FEC03F0000E29EC04F066
:1006580013EC00F01200126E12C013F0146A1CD0D2
:100668000DC015F0166A09D015C006F0000E076E09
:1006780013505EEC03F0154A162A0E500F6E106ADE
:1006880015500F5C1050800A116E1650800A1158D0
:10069800D8B0EAD7134A142A0C500F6E106A1350B8
:1006A8000F5C1050800A116E1450800A1158D8A09F
:1006B8001200D6D7086E400E066004D0000E0A6EEF
:1006C800010E03D0000E0A6E020E096E09C00BF06F
:1006D80008501BEC04F00650A9EC03F00B50E1ECB9
:1006E80003F0000E936E0B04D8B48190020E0B1821
:1006F800D8B481928196818400F0818800F007C087
:1007080083FF000E956E00F081988180818212002F
:10071800880EF66E080EF76E000EF86E00EE49F0C1
:1007280010EE05F00900F5CFEEFFE550E150FAE1D3
:10073800486A476A466A456A446A436A4E904E92D6
:10074800000EF86E000137EF04F0056E400E0560EC
:100758000CD0010E036E05504009C6EC03F0020EE2
:10076800036E400EC6EC03F01200010E036E7F0EFE
:10077800C6EC03F0020E036E0550C00F4009C6EC2C
:1007880003F01200046E0350E1EC03F0000E936EC8
:100798000304D8B48190020E0318D8B481928196CC
:1007A800819400F0818800F004C083FF000E956EEC
:1007B80000F08198818081821200026E9568000E97
:1007C800936E0204D8B48190020E0218D8B48192B4
:1007D8008186819400F0818800F083CF01F08198B0
:1007E80001BEF9D781808182120001500302F3CF44
:1007F80005F0F4CF06F001500402F350062602502B
:100808000302F350062605C001F006C002F01200EC
:10081800818A010E036E3F0EC6EC03F0020E036ED2
:100828003F0EC6EC03F0000E29EC04F01200056E32
:10083800010E036E0550B809C6EC03F0020E036EF4
:100848000550B809C6EC03F01200056E010E036EE0
:100858000550C009C6EC03F0020E036E0550C0092E
:10086800C6EC03F01200E4EC01F0FCEC02F0300EF0
:100878004D18D8B4FCD7300E4D6E04EC01F0F7D704
:050888000100303031D9
:107E080000000000000000005F00000007000700FD
:107E1800147F147F14242A7F2A127E2525251A36DA
:107E2800495522500005030000001C224100004172
:107E3800221C00082A1C2A0808083E08080050309E
:107E48000000080808080800303000002010080466
:107E5800023E5149453E00427F4000426151494639
:107E68002141454B311814127F1027454545393CAF
:107E78004A494930017109050336494949360649D5
:107E880049291E0036360000005636000000081446
:107E98002241141414141441221408000201510937
:107EA80006324979413E7E1111117E7F4949493692
:107EB8003E414141227F4141221C7F494949417F3E
:107EC800090901013E414151327F0808087F0041FC
:107ED8007F41002040413F017F081422417F4040FC
:107EE80040407F0204027F7F0408107F3E414141E9
:107EF8003E7F090909063E4151215E7F091929463D
:107F0800464949493101017F01013F4040403F1F37
:107F18002040201F7F2018207F6314081463030467
:107F2800780403615149454300007F414102040838
:107F3800102041417F0000040201020440404040FB
:107F480040000102040020545454787F48444438C7
:107F58003844444420384444487F3854545418081A
:107F68007E090102081454543C7F08040478004434
:107F78007D40002040443D00007F10284400417FA0
:107F880040007C041804787C08040478384444448D
:107F9800387C14141408081414187C7C0804040889
:107FA8004854545420043F4440203C4040207C1C0A
:107FB8002040201C3C4030403C44281028440C50B1
:107FC80050503C4464544C44000836410000007F43
:107FD8000000004136080008082A1C08081C2A0866
:107FE800080800AA0008003838380000000000001F
:087FF80000000000006600001B
:020000040030CA
:0E000000FF021900FFA580FF0FC00FE00F40A8
:00000001FF
