:040000004FEF00F0CE
:060008001582CEEF00F0AE
:100018001580D8CF0EF0E8CF0FF0E0CF10F0D9CF91
:1000280011F0DACF12F0F0A011D0F09014BE06D083
:10003800145009E10A0E135CD8B005D0BBEC00F0EF
:100048001ED051EC00F0F0B21AD0FBD7F0A217D0B6
:10005800F092000E146E000E136E0F0E806E135089
:10006800010FD96EDA6ADF508C6E1A0E0D6EF80E1B
:10007800E82EFED70D2EFCD700D0134A142A12C042
:10008800DAFF11C0D9FF10C0E0FF0FC0E8FF0EC0B3
:10009800D8FF15901000A4EF00F0000E0C6E000EB3
:1000A8000B6E0B500C10D8A406D0000E836E010EF8
:1000B800806E860E18D00B040C10D8A404D0000E45
:1000C800836E020E08D0020E0B180C10D8A406D0AE
:1000D800000E836E040E806E500E05D0000E836EE7
:1000E800080E806E790E8C6E0B4A0C2A0CBED9D77E
:1000F8000C5005E1040E0B5CD8B01200D2D71200E8
:10010800000E0F01386F000E396F000E3B6F000EA6
:10011800926E010E936E000E956E000E806E000EAC
:10012800836ED08EF28EF28CF288F292F19CF18A74
:10013800F188F09CF09EF086F088F090F082120032
:10014800BC0EF66E010EF76E000EF86E00EE01F0B2
:1001580010EE0AF00900F5CFEEFFE550E150FAE1A4
:10016800146A136A159015920001E3EF00F00F0E60
:10017800806E1350010FD96EDA6ADF508C6E1A0E3A
:100188000B6EF80EE82EFED70B2EFCD700D0134AC4
:10019800142A1200F2B2F2A80BD0F292F2AC02D0FA
:1001A800F29C02D0F2ACF28CF0B0F090F0B2F09287
:1001B800159211003F065B4F666D7D077F6784ECE3
:0401C80000F0FFD76D
:020000040030CA
:0E000000FF021900FFA580FF0FC00FE00F40A8
:00000001FF
